:020000040800F2
:10800000601900207D810008B1B200088382000859
:10801000898100088B8100088D8100080000000024
:1080200000000000B6B6FE0F508100088F810008E6
:108030009181000800000000CF81000819BB0008F2
:1080400097810008978100089781000897810008B0
:108050009781000809B40008B5990008F59900084F
:108060009781000897810008059A00089781000809
:10807000978100089781000831970008379700081A
:108080003D97000843970008978100085DC10008EC
:10809000978100081196000897810008159A00083A
:1080A0009781000897810008978100089781000850
:1080B00005BD00081DBD00089781000897810008D4
:1080C0009781000897810008978100089781000830
:1080D0009781000849C100084FC1000855C1000838
:1080E000C5990008978100089781000897810008CA
:1080F0009781000897810008978100089781000800
:1081000097810008978100089781000897810008EF
:10811000D5BD0008DBBD00089781000897810008E5
:1081200097810008978100089781000897810008CF
:1081300097810008978100089781000897810008BF
:1081400097810008978100089781000897810008AF
:10815000A5A5EDFE0000000000000000541801007D
:108160004CFC1B8701000000DFF80CD001F03EF84A
:1081700000480047E92B01086019002006488047A5
:1081800006480047FEE7FEE7FEE7FEE7FEE7FEE7FC
:10819000FEE7FEE7FEE7FEE761BB00086981000835
:1081A000EFF3108072B6704780F310887047434A2F
:1081B0001368012B04D04FF001031360404A106094
:1081C000404A116040484FF0805101607047EFF322
:1081D000108272B63948016851B34FF00001016056
:1081E0003748016891B1EFF309811EF0100F08BF05
:1081F00021ED108B21E9F00F4FF000041EF0100F5D
:1082000008BF012441F8044D006801602D49096848
:10821000096808C9B1E8F00F002B18BFB1EC108B4A
:1082200081F309884EF0100E002B18BF2EF0100EAF
:1082300082F310884EF0040E704722490860EFF375
:10824000148222F0040282F314881D494FF00000CA
:1082500008601A494FF0010008601C484FF47F0184
:10826000D0F8002041EA0201016017484FF0805128
:10827000016017480068006880F3088861B662B63C
:1082800070471EF0040F0CBFEFF30880EFF3098076
:1082900020E9F00F40F804ED40F804ED1EF0040F63
:1082A0000CBF80F3088880F3098800B50CF086FCC9
:1082B0005DF804EB4EF0040E70470000AC030020A4
:1082C000A4030020A803002004ED00E020ED00E05E
:1082D00008ED00E040EA01039B0703D009E008C96C
:1082E000121F08C0042AFAD203E011F8013B00F87B
:1082F000013B521EF9D27047CAB2401E10F8011F4E
:108300008A4202D00029F9D100207047421C10F89F
:10831000011B0029FBD1801A704710B5002200E034
:10832000521C835C8C5CA34201D1002BF8D1D8B2E3
:10833000E1B2401A10BD30B505460020034600E00A
:108340005B1C934205D2EC5CC85C201A01D1002C66
:10835000F6D130BD0FB400B58DB010A909900B90C7
:1083600000914FF0FF300A9000200C9005480690D5
:10837000054807906A4609A80F9900F081FD0DB0E5
:108380005DF814FB9D8E0008BB8E00082DE9FF5F91
:108390001D464FF0FF3BD5E9014691465F464FF041
:1083A0000008A9697F1C01988847296A8246884786
:1083B0000028F6D1BAF1FF3F0CD024F4C064002E9F
:1083C00019DD600614D5BAF12B0F09D0BAF12D0FC3
:1083D0000ED103E0584604B0BDE8F09F44F4806439
:1083E000A9697F1C01988847761E8246002E02DD0F
:1083F000BAF1300F03D0B9F1000F26D032E0A969ED
:10840000761E44F400747F1C019888478246002E33
:1084100005DDBAF1780F06D0BAF1580F03D0B9F1E3
:10842000000F10D01EE0B9F1000F02D0B9F1100F0B
:1084300018D1A969761E24F400747F1C019888471E
:108440008246102002E0082000E00A20814609E070
:1084500008FB0908A969761E44F400747F1C019882
:1084600088478246002E05DD4946504600F0F3FC61
:108470000028EDDAE96901988847A00502D46FF079
:108480000100A8E7E00725D1600613D5600502D5F5
:10849000C8F1000000E0404629680A1D2A6009680A
:1084A000220501D5087015E0220701D5088011E0EA
:1084B00008600FE02868011D29600068210502D5C9
:1084C00080F8008006E0210702D5A0F8008001E0D6
:1084D000C0F8008038467EE72DE9FF5FD2E901A7AA
:1084E0004FF00008916999461446DDF838B04646C9
:1084F00001988847054659EA0B0005D009E0A169B3
:10850000761C019888470546216A28468847002836
:10851000F5D1681C03D05FEACA7005D015E04FF0B2
:10852000FF3004B0BDE8F09F2068011D2160D0F845
:1085300000800AE05FEACA7001D108F8015BA16916
:10854000761C7F1E019888470546002F1ADD681C9F
:1085500018D0B9F1000F0DD0E81705EBD06042112B
:1085600020F01F0059F822102A1A012090400142E1
:10857000E0D107E0BBF1000FDCD1216A2846884733
:108580000028D7D0E16901988847BBF1000F07D1D7
:10859000002E05DD5FEACA7002D1002188F80010C4
:1085A000A068B84203DDBBF1000F03D017B16FF034
:1085B0000100B6E73046B4E72DE9FF4F087883B0F5
:1085C0009946FF2805D0491C2D2804D000240020FE
:1085D00008E000200BE00124F9E700EB800003EB4A
:1085E0004000491C0B78FF2BF7D104B14042002317
:1085F0000293147819461D462D2C01D02B2C04D142
:10860000521C2D2C13D000240294AA461478FF2C5F
:108610000FD00A25A3FB057801FB05814FF0000C64
:1086200003FB0C11521CE3194AEB0101EEE7012494
:10863000EAE7814453EA010002D019F5C87F06DA5F
:1086400003980021C0E9001107B0BDE8F08F0025B4
:10865000AE4E2F46DFF8B882184600F08AFDCDE90D
:108660000001B9F1000002DAC9F1000400E004469B
:108670000023A74A1AEB030B42EB045A12E0E0076F
:1086800007D02A4633463846414600F025FA0746C9
:1086900088462A4633461046194600F01DFA05461C
:1086A0000E466410002CEAD1DDE90001B9F1000F9B
:1086B0005A46534606DA00F081FA3A46434600F03D
:1086C0007DFA05E000F008FA3A46434600F004FA65
:1086D000029A0AB181F00041039AC2E90001B3E7AE
:1086E0002DE9FF4F1F468DB0D7E901464FF0FF3807
:1086F0002E2045464FF000090B90B9696D1C0E986D
:108700008847396A824688470028F6D1BAF1FF3F88
:108710000AD024F4D064002E11DDBAF12B0F08D05A
:10872000BAF12D0F0BD102E0404611B08DE744F4B1
:108730008064B9696D1C0E9888478246761E69462A
:10874000600501D52D2000E02B208DF8000001F1FF
:10875000010B0DF1200809E0B9696D1C0E988847DE
:1087600082460F9844F40074761E0560002E02DDE8
:10877000BAF1300FF0D00B998A453ED144F0800415
:1087800006E00F99681CA9F1010944F4007408601F
:10879000B9696D1C761E0E98884782463028F0D045
:1087A0002BE00B998A4505D1200603D444F08004C0
:1087B000761E18E0504605F081FD08B30DF1130157
:1087C000761E44F400748B4508D2AAF130000BF8F1
:1087D000010B200607D5A9F1010003E0200602D411
:1087E00009F101008146A00502D50F99681C0860B7
:1087F000B9696D1C0E9888478246002ED1DC53E083
:10880000002E51DDBAF1650F02D0BAF1450F4BD100
:10881000A00549D5B9696D1C24F44074761E0E98E4
:1088200088478246002E0CDD2B2804D0BAF12D0F8C
:1088300007D144F48074B9696D1C0E98884782464C
:10884000761EE00501D52D2100E02B2108F8011B43
:10885000CDF82C8021E00DF12901761E44F400743E
:1088600088450CD2AAF1300010F0FF0088F8000013
:1088700002D10B99884509D908F1010806E0E00505
:1088800001D5244801E042F20F708146B9696D1CA0
:108890000E98884782460F980560002E04DD5046EA
:1088A00005F00CFD0028D6D1F9690E988847FF2005
:1088B0008BF8000088F800000020069007904B46D7
:1088C0006A4608A906A8FFF777FEA00502D46FF054
:1088D00001002AE714F0240F0AD0E00714D1DDE9E3
:1088E00006123868031D3B600068C0E900120BE007
:1088F000DDE9060100F00EFA0146E00704D1386810
:10890000021D3A600068016028460EE7000014402E
:108910000000F03FF1D8FFFF2DE9F05F93460F46CE
:1089200080460446002603F0E9FCD0F80090824619
:1089300014F8015B2DB100F081FA0068405DC007BA
:10894000F6D12B2D02D02D2D1AD0641E0021CAF88D
:1089500000105A463946204600F0C0FA014627B1B9
:108960003868A04201D1C7F80080DAF80000022878
:1089700009D0CAF80090700505D54842BDE8F09FBF
:1089800046F48066E2E70846F8E72DE9FE4F8046A8
:1089900081EA0300C00F0C46009021F0004123F053
:1089A0000045B8EB0200A94105D240462146904659
:1089B0001C460B46024623F00040104347D0270DCB
:1089C000C7F30A00C3F30A510290401A01904028ED
:1089D0006BDAC3F3130040F4801B0098924620B179
:1089E0000023D2EB030A63EB0B0B01985946C0F14D
:1089F0004002504600F0F1F906460D4650465946F1
:108A0000019A00F009FA10EB08006141002487EA9E
:108A1000115284EAE7731A4340D0009A62B3019A74
:108A2000012A4FEA075215DC001B61EB02014FF0EF
:108A3000004202EA0752CDE90042001C41F58011D4
:108A400032462B4600F0DFFA03B0BDE8F08F404617
:108A50002146F9E7001B61EB0201001C41F5801380
:108A600000185B412018A2F5001747EB030140EA0C
:108A7000D570B6196D4111E06D084FEA360645EA2A
:108A8000C0754FEA0752001B61EB0201001C41F563
:108A9000801149084FEA30000019514132462B46F7
:108AA00003B0BDE8F04F00F09FBA009801224000EB
:108AB0000023D0EB020263EBE073009821464FEAFB
:108AC000E074B8EB000061EB0401E9E783F00043D8
:108AD0005BE781F0004158E72DE9FE4F81EA03048E
:108AE00004F0004421F0004100944FF0000B23F00B
:108AF000004350EA01045ED052EA03045BD0C3F3A2
:108B00000A54C1F30A552C44A4F2F3340194A0FB97
:108B10000254C1F3130141F48011C3F3130343F46E
:108B2000801301FB024400FB034E840A970A44EAC7
:108B3000815447EA8357A4FB076802958D0A05FB19
:108B400007854FEA932C04FB0C542705029D4FEA3E
:108B5000065847EA1637B5EB08056EEB070C870E8B
:108B6000920E47EA811742EA8312A7FB0201B6EB95
:108B70000B0164EB00042B0D43EA0C335E1844EB4D
:108B80001C50DA465146E7FB0201C5F313044FEAD5
:108B90000B3343EA14534FEA0432019C43EA0603C1
:108BA000A4F10C040294009CCDE900B400F02BFA6F
:108BB00003B0BDE8F08F00200146F9E72DE9F04D44
:108BC00081EA030404F0004B21F0004514464FF005
:108BD000000A23F0004150EA050220D054EA0102C5
:108BE0001DD0C5F30A570246C5F31303C1F31300A2
:108BF000C1F30A5640F4801543F48013A7EB06082E
:108C0000101BD64608F2FD3873EB050002D308F1BD
:108C1000010801E092185B41B8F1000F03DA00206F
:108C20000146BDE8F08D00204FF4801106468446D1
:108C30000EE0171B73EB050705D3121B63EB05034F
:108C400006434CEA010C49084FEA300092185B4198
:108C500050EA0107EDD152EA030012D082EA040083
:108C600083EA0501084305D0101BAB4106D201225F
:108C7000002306E000224FF0004302E06FF0010203
:108C800053101AEB06004CEB085110EB0A0041EBB5
:108C90000B01BDE8F04D00F0A7B90EB5C10F80EA99
:108CA000E0700844CA07002140F233438DE80E000B
:108CB0000A460B4600F0A7F903B000BD00F00042E1
:108CC00030F000400AD0C10D01F56071C0F316000C
:108CD00042EA0151C2084007114370470020014693
:108CE0007047000030B5041E71F1000404DB4FF042
:108CF0000044404264EB0101141E73F1000405DBE3
:108D00001C464FF00043524263EB04038B4208BF02
:108D1000824230BD01F0004330B421F0004150EAFE
:108D2000010206D00A0DA2F56072C1F31301002AF8
:108D300002DC30BC00207047440F44EAC104C1008B
:108D4000E01830BC00EBC25000F017B930B50B464C
:108D5000014600202022012409E021FA02F59D426B
:108D600005D303FA02F5491B04FA02F52844151E3F
:108D7000A2F10102F1DC30BD2DE9F05F05460020D3
:108D800092469B4688460646814640241BE028467C
:108D900041464746224600F02FF853465A46C01A2D
:108DA000914110D311461846224600F016F82D1AAC
:108DB00067EB01084F4622460120002100F00DF824
:108DC00017EB00094E41201EA4F10104DFDC4846E8
:108DD00031462A464346BDE8F09F202A04DB203A6C
:108DE00000FA02F1002070479140C2F1200320FAFE
:108DF00003F3194390407047202A04DB203A21FAFC
:108E000002F00021704721FA02F3D040C2F12002A3
:108E10009140084319467047202A06DBCB17203AB9
:108E200041FA02F043EAE07306E041FA02F3D0406F
:108E3000C2F120029140084319467047004870472C
:108E4000AC94010810B50446FFF7F8FF0068005D18
:108E500000F0010010BD3A2800D2303820F0200286
:108E6000412A01D3A2F13700884201D34FF0FF30ED
:108E7000704700000268114413780160184670477B
:108E8000D160044951610449116200211161114608
:108E900000F0BEB9758E0008458E0008426842B1E8
:108EA000016811F8013B23B1521EC0E900121846B7
:108EB00070470121C160881E704742685AB1C3687B
:108EC000016843B983688B4205D0491E521CC0E932
:108ED0000012002070474FF0FF3070472DE9F05F1F
:108EE00082460078002715468B460AF10104B946F0
:108EF000302801D09DB113E014F8010B0127782828
:108F000003D0582801D045B10AE00DB1102D07D18A
:108F10000027102514F8010B02E0082500E00A25BF
:108F20000026B0460EE005FB080005FB06F1012710
:108F300001EB10461FFA80F8B6F5803F00D3B94622
:108F400014F8010B2946FFF786FF0028EBDABBF186
:108F5000000F05D00FB1641E00E05446CBF800406E
:108F6000B9F1000F06D003F0C9F902210160C81E53
:108F7000BDE8F09F48EA0640FAE70029A8BF70471D
:108F8000401C490008BF20F00100704710B4B0FA3F
:108F900080FC00FA0CF050EA010404BF10BC7047DA
:108FA00049B1CCF1200421FA04F411FA0CF118BFF4
:108FB000012121430843A3EB0C01CB1D4FEA0061C3
:108FC0004FEA102042BF002010BC704700EBC35096
:108FD00010440029A4BF10BC7047401C490008BFC2
:108FE00020F0010010BC704710B5141E73F100048E
:108FF00008DA401C41F1000192185B411A4301D18B
:1090000020F0010010BD2DE9F04D92469B4611B1B4
:10901000B1FA81F202E0B0FA80F220329046FFF716
:10902000DCFE04460F4640EA0A0041EA0B015346C3
:109030005A46084313D0114653EA010019D0C8F12B
:1090400040025046FFF7D8FE05460E4650465946A8
:109050004246FFF7C2FE084305D0012004E0204647
:109060003946BDE8F08D0020054346EAE0762C4302
:1090700037430A986305E40AA0EB08000022FD0AC2
:1090800044EA47540A3002D500200146E9E70105C9
:1090900010196941DDE9084500196941BDE8F04D45
:1090A000A2E770B521F0004303430CD0C1F30A5589
:1090B0000024D5EB040564EB0403D617AD1AB341C5
:1090C00002DB0020014670BD201841EB025170BD4B
:1090D0002DE9F04D00231A461B1A8A4103DB0020BC
:1090E0000146BDE8F08DC1F30A52C1F3130141F40A
:1090F00080154FF0000BD10702D100186D41521EB0
:109100000027044640F2FF11384601EB620A3E4652
:109110008046024600204FF48011FFF76DFEC21911
:109120007141BB1846EB0100B4EB030C75EB000C6E
:1091300004D3E41A65EB000517460E46241908F11E
:1091400001006D4180463428E3DDF91946EB060045
:10915000091BA84103D24FF0FF32134601E0002261
:1091600013461BEB070046EB0A51BDE8F04DFFF735
:109170003BBF0EB540F2334202920022CDE90022FD
:109180001346FFF740FF03B000BDC1F30A52C1F31D
:10919000130140F2FF3341F480119A4202DA0020B9
:1091A0000146704740F233439A42A2F2334202DC56
:1091B0005242FFF721BEFFF710BE000030B5041E7B
:1091C00071F1000404DB4FF00044404264EB010104
:1091D000141E73F1000405DB1C464FF0004352429D
:1091E00063EB0403994208BF904230BD064C074D23
:1091F00006E0E06840F0010394E807009847103467
:10920000AC42F6D3FEF7B4FF209601085096010851
:109210002DE9F34F8BB04FF0000801F10C000C4624
:109220004FF0010B46460DF1080A019062690121D9
:1092300001989047051E2DD0252D2CD0216A8847F6
:10924000C0B16269012101989047216A88470028CE
:10925000F7D1411E62690198904700E0761CA16930
:109260000B988847216A88470028F7D1E1690B9855
:109270008847DBE7A1690B9888470746A84201D1D8
:10928000761CD3E7E1690B9888477F1C02D1B8F1BF
:10929000000F6FD046E1002762693D4639460198CC
:1092A00090472A2804D1626901210198904701253D
:1092B000DFF884926269012101989047A0F13001A2
:1092C0000A290AD24F45E5DC07EB870100EB41078D
:1092D000303FDFD445F01005ECE7E90601D46FF02C
:1092E00000476C280AD04C2814D0682815D06A286A
:1092F0000DD074281CD07A281AD01DE06269012193
:10930000019890476C2802D045F0040514E045F020
:1093100002050DE045F020050AE06269012101988F
:109320009047682802D045F0080505E045F400653F
:109330006269012101989047C4E9015765283DD031
:1093400019DC58287AD00CDC452837D004DC2528D5
:1093500026D0412831D131E046282FD047282CD1C2
:109360002CE05B2877D0612828D063287CD0642843
:1093700023D15AE0D0E06F2848D008DC66281DD001
:1093800067281BD0692821D06E2816D127E07028C5
:1093900045D0732868D0752847D078280DD14DE086
:1093A000A1690B988847054625283FF469AFE16914
:1093B0000B9888476D1C3FF46AAFB3E023466A46BA
:1093C0006FF001000B99FFF78BF99EE045F040002C
:1093D0006060A80723464FF0000236D43EE0E8075D
:1093E0007FF447AF2068011D21600068290501D581
:1093F00006701BE7290701D5068017E7A90703D5E3
:10940000F117C0E9006111E706600FE745F0400081
:109410006060A80723464FF0080216D41EE040F60D
:109420000E0125EA0100606016E045F04000606032
:10943000A80723464FF00A0207D40FE045F040008A
:109440006060A80708D5234610226FF001000B9931
:10945000AFF3008059E007E0234610226FF00100CF
:109460000B99FEF793FF50E04FF000094F464B4633
:10947000632802D05B2806D040E0E80601D4012032
:10948000A06001273AE062690121019890475E28B7
:1094900005D14FF001096269494601989047216959
:1094A00039B900210A46534643F82120491C0829AE
:1094B000FADBB0B3216969B9C11700EBD16253116E
:1094C0000AEB830122F01F02821A01200B689040F0
:1094D00003430B6062690121019890475D28E8D140
:1094E000B9F1000F09D00020514651F82020D24395
:1094F00041F82020401C0828F7DB02AB22460097E9
:109500006FF001000B99FEF7E7FF00280CDA401C12
:1095100008D1BBF1000F05D04FF0FF300DB0BDE812
:10952000F08FFFE74046F9E7E90701D108F10108AC
:1095300006444FF0000B79E6CCCCCC0C70B58C18FF
:1095400010F8015B15F0070301D110F8013B2A1157
:1095500006D110F8012B03E010F8016B01F8016B44
:109560005B1EF9D12B0705D40023521E0DD401F840
:10957000013BFAE710F8013BCB1A921C03E013F809
:10958000015B01F8015B521EF9D5A142D8D300203E
:1095900070BD40F23D0CC2F2000C604740F2010C7D
:1095A000C2F2000C604740F2310CC2F2000C60477E
:1095B00040F2950CC2F2000C6047000010B508683C
:1095C00000221146401CFFF7A7F904460B49A0F5FD
:1095D000166088420FD8214609A00FF049F90B48C0
:1095E000416CA14205D044644FF4E27120300FF089
:1095F000EFFA002010BD012010BD0000207B1E00EE
:10960000424155443D25640D0A0000002404002019
:10961000144810B5016888B0C90601D51021016051
:109620000168090701D5082101600068800716D08C
:1096300006A90DF10B00CDE90001012103AB05AA3C
:10964000084600F013F8084C0598ADF808000C2205
:1096500002A920680CF06CFBA0680CF059FE08B061
:1096600010BD00001064004014040020F0B52F4E1F
:109670004FF4D87505EB011556F82040DDE905C714
:1096800054F805E064591EF0040F48D0E408146053
:1096900056F8202052594FF4DA7402F002023A7060
:1096A00056F8202004EB0114125902F00F028CF836
:1096B000002056F820404FF4DC7202EB0112A4584F
:1096C0001C7056F82040A458240A5C7056F82040BC
:1096D000A458240C9C7056F82040A258120EDA7040
:1096E00056F820404FF4DE7202EB0112A4581C71B0
:1096F00056F82040A458240A5C7156F82040A4581B
:10970000240C9C7156F82040A258120EDA7156F8BB
:10971000200031B1016941F020010161F0BD640D0B
:10972000B5E7C16841F02001C160F0BDE88E0108D5
:1097300001200EF0F7BF01200EF0B8BF02200EF09E
:10974000B5BF02200EF0EEBF012809D002280DD1CE
:10975000074850F8210001682AB141F0010104E0F6
:1097600003484038F5E721F001010160704700002F
:10977000408F010802460020012A06D0022A03D1A8
:10978000034850F821004068704701484038F8E726
:10979000408F01080A494FF0FF32012808D0022803
:1097A00005D1486940F002004861064802607047F0
:1097B000486940F00100486103484260704700007A
:1097C00000100240040402400000024070B515463B
:1097D0000C4601280ED0022817D10C48005701F082
:1097E0007DFD0A48503050F82400016855B141F021
:1097F000020109E00548801D005701F06FFD034894
:109800001030F0E721F00201016070BDF08E010818
:10981000012806D0022803D1034850F821004260F5
:10982000704701484038F8E7408F0108012806D00A
:10983000022803D1034850F82100C2607047014854
:109840004038F8E7408F010801280BD0022808D1E2
:10985000064850F82100016821F0800141EAC21158
:109860000160704701484038F3E70000408F01086D
:1098700010B50B46044609780022FFF765FF43F652
:10988000D071012C28D0022C25D11C7815489A685B
:1098900050F82440A2601C781A6950F82440E26015
:1098A0001C785A8850F8244062601A7850F82200D8
:1098B00002688A4399880C0244EA81211C7B41EAB0
:1098C000C4119C795B7841EA841141EA0311114388
:1098D00041F48051016010BD02481C7840389A68FC
:1098E000D6E70000408F01080548016841F080710B
:1098F00001600448016841F0010101607047000007
:10990000FCED00E0001000E002F010B910B50868AE
:1099100000221146401CFEF7FFFF06490028086C94
:1099200004D040F001000864002010BD20F00100C8
:10993000F9E700002404002030B51C4844560120FB
:1099400004F01F0500FA05F56409A40004F1E02401
:10995000C4F80051164C2568884005432560144919
:1099600014390C680BB1044300E084430C601049C7
:109970000C394AB10C1D012A0DD0022A0AD10A68FD
:109980008BB102430A6007E00A680BB1024300E0B2
:1099900082430A6030BD13B12168014301E02168B0
:1099A0008143216030BD82430A60F8E7688F010877
:1099B0001404014002480021007809F077BC00003F
:1099C000240C00202DE9F0410A24084E084F0125FF
:1099D000306805FA04F1084203D0385D214609F0E9
:1099E00065FC641C102CF3DBBDE8F081140401401D
:1099F000240C002002480121407809F057BC0000E7
:109A0000240C002002480421007909F04FBC00001A
:109A1000240C00202DE9F0410524084E084F0125B3
:109A2000306805FA04F1084203D0385D214609F098
:109A30003DFC641C0A2CF3DBBDE8F08114040140FA
:109A4000240C002008B50E4800220092016841F461
:109A5000803101604FF4004306E00099491C0091F9
:109A6000994201D9012008BD01688903F5D500920A
:109A700000BF0098401C0090FF28F9D9002008BDC5
:109A8000001002402DE9F84F884624200BF0DAFF41
:109A900000900C200BF0D6FF834624200BF0D2FF61
:109AA00082460C200BF0CEFF2E49814624220C4624
:109AB00000980CF03FF82B490C2224310D465846F3
:109AC0000CF038F82749242240310E4650460CF05D
:109AD00031F824490C2264310F4648460CF02AF82C
:109AE00008F0CAF808F036F92422204600990CF054
:109AF00021F80C22594628460CF01CF82422514625
:109B000030460CF017F80C22494638460CF012F893
:109B100015A1D8F800000CF0BAFF58B91148083860
:109B200007F054FA0F48383007F050FA0D487830F3
:109B300007F04CFA4FF4E2710D480FF049F8009825
:109B40000AF08AFF58460AF087FF50460AF084FF61
:109B500048460AF081FF0021084601F08DFC0020F4
:109B6000BDE8F88F500500203D5245534554000094
:109B7000440400202DE9F0438BB00D4652A00EF0B6
:109B800077FE55A128680CF082FF554C4FF4E2781F
:109B900004F1200604F5927400284DD05148011FAD
:109BA000CDE905100A1F131FCDE903321038011F3C
:109BB0000A1F0092CDE90110131F083A4AA1286834
:109BC000FEF7C8FB464D09283AD09FED4E0A032107
:109BD00007A80EF0CAFF0A200DF05CF9002405F575
:109BE00015794FF448770322494607A80EF0C4FEC2
:109BF0000A200DF04FF9641CBC42F4DBF0EE080AB9
:109C00009FED410A374907A8091D0C460EF088FF51
:109C1000032120460EF05AFF95ED560AF7EE000A92
:109C200030EE600A85ED560A414630460EF0D0FF10
:109C30000BB00020BDE8F083204607F0C7F93EE0F6
:109C4000002295ED4B0A1146204608F0C2FF95ED23
:109C50004C0A01220021204608F0BBFF95ED4D0A79
:109C600002220021204608F0B4FF95ED4E0A0022A2
:109C70000121204608F0ADFF012295ED4F0A114663
:109C8000204608F0A6FF95ED500A02220121204649
:109C900008F09FFF95ED510A00220221204608F0AE
:109CA00098FF95ED520A01220221204608F091FF0B
:109CB000022295ED530A1146204608F08AFF2146FC
:109CC00012A006F047F9AFE7626567696E20464368
:109CD00041320D0A000000003D524553455400003A
:109CE00024040020700500203D25662C25662C25C7
:109CF000662C25662C25662C25662C25662C25666B
:109D00002C256600000000000AD7A33A6D61746C30
:109D1000616200002DE9F04F2DED0C8B9DB00C46DB
:109D20000026B24616AA0868FEA1FEF713FB1AAB7E
:109D300016AAFDA12068FEF70DFBFDA11AA80CF0E4
:109D4000A6FE08B94FF0010A0321084608F0ACFF4F
:109D500003210A90084608F0A7FFDFF8D893119076
:109D60000021A9F8DA12D9ED21CAB7EE00CA89EDAF
:109D700021CA0321062008F097FF0F900421062036
:109D800008F092FF0E900321042008F08DFF15903B
:109D90000421032008F088FF9FEDE7DA10900321EB
:109DA000B0EE4D0A0BA80EF0E0FEB0EE4D0A032116
:109DB00007A80EF0DAFEB7EE000A022200210F9883
:109DC00008F007FFBFEE000A022201210F9808F0F9
:109DD00000FFB7EE000A012202210F9808F0F9FEF9
:109DE000BFEE000A012203210F9808F0F2FEB7EE41
:109DF000000A002204210F9808F0EBFEBFEE000AD3
:109E0000002205210F9808F0E4FE5246CBA01699D7
:109E10000EF02EFD002409F518702546A0462746B1
:109E20001990B9F8DA02012805D9032207A819996F
:109E30000EF0A2FD7F1CB9F8DA0203284DD12807E5
:109E40004BD400EE107AC64907A8F8EE400A1291EA
:109E50008CEE200AF0EE080A0EF062FEDDE9110237
:109E600000210DF020FCDDE9110201210DF01BFCA9
:109E7000DDE9110202210DF016FC0322B9A01299AE
:109E800006F0B6F8AB4845F0080500F1200218923C
:109E900000F5A87217922C3A00F5B270CDE91302C2
:109EA000FFEE00AABAF1000F01D045F00305CB4642
:109EB000032207A819990EF05FFDBBF8DA027F1C98
:109EC00001280ED9A6494FF000090322C4310BA87E
:109ED0000EF052FD08F101000CE00A200CF0DAFF50
:109EE0009FE74FF00109B0EE4D0A03210BA80EF0D9
:109EF0003CFE0020804626B1012E11D0022E0ED14C
:109F000013E00DF0B9F81C90B0EE4D0A032107A83C
:109F10000EF02BFE0027B9F1000F00D00126DBE088
:109F2000B9F1000FFBD10226D6E028067ED40DF051
:109F3000A3F81C99401A00EE100AB8EE400ADFEDB3
:109F40008B0AC0EE208A18EE900AFEF7B7FE41ECAD
:109F5000100B87A053EC102B02F07EF900269FED2A
:109F600087BBDFF820929DED160A864907A8B8EE58
:109F7000C00A80EE288A00EE107AF8EE400A8CEED5
:109F8000200AF0EE080A0EF0CBFD09EB860090EDFA
:109F9000000AB0EEC00A10EE100AFEF78FFE41EC88
:109FA000190BB0EEC8AA1AEE100AFEF787FE53ECA2
:109FB000192BFEF78BFD53EC1B2BFEF793FE3AD2C9
:109FC00018EE901A7048814235DD1AEE101A81425F
:109FD00031DD1AEE100A6D4988422CDA09EB860051
:109FE000694990ED000A38EE400AB0EEC00A10EE62
:109FF000100A884201DDB1EE488A6248614A0C3895
:10A0000000EB8600314680ED008A0A980DF04BFB8C
:10A0100018EE100AFEF752FE41EC100B5CA053EC58
:10A02000102B02F019F90322564900E053E05CA01E
:10A0300005F0DEFF03E0761CF6B2032E93D326B1C3
:10A04000012E06D0022E09D10CE045F0010556A0E4
:10A0500002E045F0020558A002F0FEF8E8430007D0
:10A0600004D038E045F0040557A0F5E75AA00EF0FB
:10A07000FFFBBAF1000F33D0BAF1000F2BD018EE6E
:10A08000100AFEF71BFE41EC100B41A053EC102B05
:10A0900002F0E2F803223B4941A005F0A9FF99ED47
:10A0A000020ADBED660A4E4630EE600A89ED020ACE
:10A0B000139806F08BFFD6ED020A0222114688EEB5
:10A0C000200A139808F085FD45F080054FF4E271F1
:10A0D00018980EF07DFD0026B8F1460F20D0E1E182
:10A0E0000321084608F0E0FD06460321084608F073
:10A0F000DBFD244981460C3905F0EAFE11990A98E6
:10A100000DF0DAFC30460A9908F04EF83146484620
:10A11000139A08F0DFFE48460AF09EFC304669E0DC
:10A1200073E000003D2564003D25642C2533730059
:10A130005A49580024040020000000006265676945
:10A140006E2061636320616E6420677972206361B1
:10A150006C3A25642C206F70743A25640D0A000057
:10A16000B4050020626961733A0000000000C84233
:10A170006674696D653A25660D0A000000000000EE
:10A1800000000840900E00200000404000004843BE
:10A19000746865726F793A2566200D0A0000000028
:10A1A0006163743A0000000047595220582020662D
:10A1B0006F756E64210D0A004759522059202066A0
:10A1C0006F756E64210D0A00475952205A2020668F
:10A1D0006F756E64210D0A00616C6C2067797220C6
:10A1E0006461746120636F6C6C65637465640D0AEF
:10A1F000000000000AF030FC0A980AF02DFC1198CB
:10A200000AF02AFC45F0800565E720067ED4DDEDE6
:10A210000B0A4FF000089FEDC00A03210BA880EE47
:10A22000801A8DED001ADDED0C0A80EE801A8DED9E
:10A23000011ADDED0D0A80EE801AB0EE4D0A8DEDAB
:10A24000021A0EF092FC8DED03CA9DED000ADFF8B4
:10A25000CC92B0EEC00A10EE100A48451FDA9DED10
:10A26000010AB0EEC00A10EE101A494517DA9DED4A
:10A27000020A30EE4C0AB0EEC00A10EE101A494540
:10A280000DDAE0070BD144F001046A4600210E9874
:10A290000DF01EFA04226946A1A005F0A9FE9DED6D
:10A2A000000AB0EEC00A10EE100A48451FDA9DED14
:10A2B000010AB0EEC00A10EE101A494517DA9DEDFA
:10A2C000020A30EE6A0AB0EEC00A10EE101A4945D2
:10A2D0000DDAA0070BD444F002046A4601210E985F
:10A2E0000DF0F6F9042269468EA005F081FE9DED81
:10A2F000000AB0EEC00A10EE100A484521DA9DEDC2
:10A30000020AB0EEC00A10EE101A00E0CAE0494599
:10A3100017DA9DED010A30EE4C0AB0EEC00A10EEDD
:10A32000101A49450DDA60070BD444F004046A465C
:10A3300002210E980DF0CCF9042269467AA005F0AE
:10A3400057FE9DED000AB0EEC00A10EE100A484517
:10A350001FDA9DED020AB0EEC00A10EE101A494550
:10A3600017DA9DED010A30EE6A0AB0EEC00A10EE6F
:10A37000101A49450DDA20070BD444F008046A4648
:10A3800003210E980DF0A4F90422694667A005F098
:10A390002FFE9DED010AB0EEC00A10EE100A4845EE
:10A3A0001FDA9DED020AB0EEC00A10EE101A494500
:10A3B00017DA9DED000A30EE4C0AB0EEC00A10EE3E
:10A3C000101A49450DDAE0060BD444F010046A4631
:10A3D00004210E980DF07CF90422694654A005F082
:10A3E00007FE9DED010A4846B0EEC00A10EE101AB5
:10A3F00081421FDA9DED020AB0EEC00A10EE101A7B
:10A40000814217DA9DED000A30EE6A0AB0EEC00A0A
:10A4100010EE101A49450DDAA0060BD444F02004C2
:10A420006A4605210E980DF053F90422694641A0B1
:10A4300005F0DEFDE043800634D13FA00EF018FAAF
:10A44000DDE90E10159A08F034FA109915980EF0FF
:10A450009FF804AA0021109806F063FF04AA0021C7
:10A4600014980DF020F904AA0121109806F059FF64
:10A4700004AA012114980DF016F904AA02211098DB
:10A4800006F04FFF04AA022114980DF00CF90321E5
:10A49000179A109806F045FF032117980EF0E8FA76
:10A4A00044F080040A200CF0F5FC20067FF500AD96
:10A4B0002806FBD527A001F0CFFE28A0149905F0AF
:10A4C00049FD032225A0179905F092FD26A001F071
:10A4D000C3FE22A0139905F03DFD03221FA012998F
:10A4E00005F086FDCBED21CA4FF4E27118980EF00D
:10A4F0006FFB0E980AF0B0FA0F980AF0ADFA1598B3
:10A500000AF0AAFA10980AF0A7FA1DB00020BDECD4
:10A510000C8BBDE8F08F000000008C42CDCC4C3E8F
:10A520005A2B3A005A2D3A00592B3A00592D3A002D
:10A53000582B3A00582D3A00616C6C2061636320FF
:10A540006461746120636F6C6C65637465640D0A8B
:10A55000000000006163630D0A0000006E6F686513
:10A5600061646572000000006779720D0A000000E6
:10A570002DE9F0430C4608688BB0002551A10CF082
:10A5800086FA524F4FF4E27807F1200607F5B277CA
:10A5900000284ED04E48011FCDE905100A1F131F99
:10A5A000CDE903321038011F0A1F0092CDE90110D6
:10A5B000131F083A47A12068FDF7CCFE09283CD0BC
:10A5C0009FED4B0A032107A80EF0CFFA49A00EF029
:10A5D0004FF9DFF8FC90002409F1D4094FF44877D3
:10A5E0000322494607A80EF0C7F90A206D1C0CF09B
:10A5F00051FC641CBC42F3DB00EE105AB7EE001AAB
:10A600003349F8EEC00A091D0C4607A881EE200A5E
:10A61000F0EE080A0EF084FA0322214639A005F074
:10A62000E7FC414630460EF0D3FA0BB00020BDE8FF
:10A63000F083384606F0CAFC3FE0244C0022114665
:10A6400094ED5B0A384608F0C4FA94ED5C0A0122E6
:10A650000021384608F0BDFA94ED5D0A022200217F
:10A66000384608F0B6FA94ED5E0A00220121384619
:10A6700008F0AFFA012294ED5F0A1146384608F05F
:10A68000A8FA94ED600A02220121384608F0A1FAE6
:10A6900094ED610A00220221384608F09AFA94EDFE
:10A6A000620A01220221384608F093FA022294ED50
:10A6B000630A1146384608F08CFA394611A005F0B5
:10A6C00049FCAEE73D5245534554000024040020A8
:10A6D000B00500203D25662C25662C25662C2566B8
:10A6E0002C25662C25662C25662C25662C256600D7
:10A6F00000000000626567696E20464347320D0A1C
:10A70000000000006D61746C616200002DE9F04191
:10A710000F46086886B02AA10CF0B9F92A4C4FF40C
:10A72000E27804F5E87604F1200504F5D27478B1F6
:10A7300004A903A8CDE9000102AB05AA23A138684A
:10A74000FDF708FE042819D0012006B0BDE8F0810D
:10A75000204606F03BFC214620A005F0FBFB9FEDC8
:10A76000210A032130460EF000FA17489FED1E0A19
:10A77000002180ED2A0AC0F8A4101AE005990329E7
:10A7800008DA02AA20460CF0A3FF214613A005F028
:10A79000E1FB0EE00DD14FF0030202A930460EF0AE
:10A7A00006F912A00EF064F8032202A913A005F026
:10A7B0001FFC414628460EF00BFA0020C5E70000BA
:10A7C0003D52455345540000240400203D25642C8F
:10A7D00025662C25662C2566000000006D61746CD2
:10A7E00061620000000000000000C64262696173FF
:10A7F0002073657420746F3A0D0A00006E6F6865EF
:10A80000616465720000000070B505462D4B14466A
:10A810000E46062D0CD2DFE805F0030714180B1CBA
:10A82000986940F0040002E0986940F008009861DF
:10A830000A2C44D2DFE804F0111F18432A43434393
:10A840002A3E986940F01000F1E7986940F0200036
:10A85000EDE7986940F08000E9E7002301222846EF
:10A8600001F0C8F800221EE000230222284601F071
:10A87000C1F8012205E000230222284601F0BAF8BF
:10A8800000223146284600F029F818E00323002270
:10A89000284601F0AFF8042C0AD0002231462846A1
:10A8A00000F01CF801223146284600F03DF806E091
:10A8B0000122F3E702230122284601F09BF82846F3
:10A8C00070BD000000100240034A52F8200080686A
:10A8D000C84000F001007047588F010801238B40E9
:10A8E000034951F820000AB1036170474361704782
:10A8F000588F01080A4A10B5936943F00103936128
:10A900008A0721F003040749120F21440F238C68A2
:10A9100093409C438C608B68904003438B6010BDD8
:10A92000001002400000014030B512B100240223A3
:10A9300001E0012400230D4A0F2552F820008A006F
:10A94000082909D34168203A954043EA8403A94382
:10A9500093400B43436030BD0168954043EA840354
:10A96000A94393400B43036030BD0000588F01089A
:10A97000012A00D00022FFF7B1BF000070B50C46DD
:10A980000868FDF7C3FC104DB0B1206800221146E5
:10A99000401CFDF7C1FFFF2813D855F8C01FC0B2F7
:10A9A00021F0FF010143084829604FF4E271203093
:10A9B0000EF00EF9002070BD95F8C01003A00DF048
:10A9C00057FF012070BD00002404002025640D0AFB
:10A9D0000000000030B5224C012102226368C3F35D
:10A9E00003135BB1082B04D0092B04D00A2B05D12B
:10A9F00003E0022102E0042100E008216368C3F3C0
:10AA0000022333B1042B09D0052B04D0062B05D12A
:10AA100003E0012202E0042200E00822114B052895
:10AA20001B681AD2DFE800F00B03080D0F00B3FB20
:10AA3000F1F0B0FBF2F030BDB3FBF1F030BD1846E1
:10AA400030BD094830BD206B800104D5606D8005A4
:10AA500001D5064830BD064830BD002030BD00009D
:10AA60000010024004010020001BB700006CDC0253
:10AA700000127A000249486A00224A6270470000C8
:10AA8000001002400549054B0A68091D0833096892
:10AA90001B685940C0E9002170470000E8F7FF1F1C
:10AAA00008B5054B6946187801F0D2F90028F9D1AC
:10AAB0009DF8000008BD00004801002070B50C465C
:10AAC0000868FDF723FC0C4D88B120680022114670
:10AAD000401CFDF721FF296B814206D028634FF40B
:10AAE000E27105F120000EF073F8002070BD03A0A4
:10AAF000296B0DF0BDFEF8E72404002025640D0A43
:10AB0000000000003EB508686B4601AA4AA1FDF7A7
:10AB100021FC022876D19DED000AB5EEC00AF1EEC7
:10AB200010FA6FDB10EE100A454988426ADC0124F6
:10AB300044A101A80BF0ABFF434D70B90098FEF79C
:10AB4000BDF841EC100B41A053EC102B0DF090FE22
:10AB50009DED000A002485ED210A41A101A80BF01A
:10AB600096FFB0B99DED000AD5F88000BDEEC00A91
:10AB700020F00F0010EE101A01F00F010843C5F885
:10AB80008000384900F00F00095C37A00DF070FE1E
:10AB9000002439A101A80BF07AFFC0B99DED000A8D
:10ABA000D5F88000BDEEC00A20F0F00010EE101ABB
:10ABB000090740EA11601E21C5F8800001EAD000B3
:10ABC0002849091D095A2DA00DF052FE00242FA17D
:10ABD00001A80BF05CFF70B90098FEF76FF841EC2C
:10ABE000100B2BA053EC102B0DF042FE9DED000A34
:10ABF000002485ED230A2AA101A80BF048FF10B11B
:10AC000084B115E016E00098FEF758F841EC100BFF
:10AC100024A053EC102B0DF02BFE9DED000A002418
:10AC200085ED220A08484FF4E27120300DF0D0FF84
:10AC300020463EBD01203EBD3D2533732C256600D8
:10AC40000000A0404249530024040020677972208C
:10AC500062616973207468723A25660D0A0000000B
:10AC600041524700B00300204143435F52473A2519
:10AC700064470D0A00000000475247004759525FE1
:10AC800052473A25646470730D0A0000434F460032
:10AC900074656D7020636F66203A25660D0A0000AA
:10ACA0004C4D4600677972206C6D66207468723A6C
:10ACB00025660D0A000000007CB50C460868B3A1AB
:10ACC000FDF72BFBB24D28B1B2A12068FDF725FBA3
:10ACD00000282DD1B0A10520CDE9000100230122DB
:10ACE000E521B0A00DF0C4FDB5A00DF0C1FD95F8B3
:10ACF0006000800701D5BBA200E0BCA2BDA1BFA03F
:10AD00000DF0B6FDC0A1C2A0AA6E0DF0B1FDC3A1A9
:10AD1000C3A02A6B0DF0ACFDD5E90A23C3A1C5A0E1
:10AD20000DF0A6FDA86CC6A1020CC7A00DF0A0FDF9
:10AD3000C8A12068FDF7F1FA002821D1B5F8D62284
:10AD4000C6A1C1A00DF094FDC6A1C9A0D5F8D0221E
:10AD50000DF08EFD95F88000C94900F00F000A5CE7
:10AD6000C8A1CAA00DF084FDD5F880001E2101EA1B
:10AD7000D000C349091D0A5AC7A1C9A00DF078FD2A
:10AD8000CBA12068FDF7C9FA40B90CF075F9642130
:10AD9000B0FBF1F2C8A1CAA00DF06AFDCBA12068FA
:10ADA000FDF7BBFA002836D1CA49CBA005F0D2F88E
:10ADB000C84903222C31CAA005F01AF90322CB4955
:10ADC000CBA005F015F9C349CCA0403105F0C2F87D
:10ADD000C04903226C31C2A005F00AF9C34903221D
:10ADE0000C39C8A005F004F9BA49C9A0803105F0B2
:10ADF000B1F8B8490322AC31B9A005F0F9F8D5F89B
:10AE00008C00FDF75BFF41EC100BC3A153EC102B42
:10AE1000C3A00DF02DFDC5A12068FDF77EFA002826
:10AE20004BD17EA17AA02A6B0DF022FD71A178A0F2
:10AE3000AA6E0DF01DFD95F8C020BEA174A00DF006
:10AE400017FDBEA172A06A6C0DF012FDBDA170A02D
:10AE5000AA6D0DF00DFD6A6DBDA1BFA040350DF0CE
:10AE600007FDE97FA87FCDE900016B7F2A7FBDA1A7
:10AE7000C0A00DF0FDFC686CFDF720FF41EC100B4D
:10AE8000C1A153EC102BC2A00DF0F2FCA86CFDF791
:10AE900015FF41EC100BC2A153EC102BBCA00DF020
:10AEA000E7FCB5F89822C1A159A0403D0DF0E0FCA7
:10AEB0008849C1A0403905F04DF8C1A12068FDF7CF
:10AEC0002CFAD0B915F8C02F9AA151A00DF0D0FCE2
:10AED0002888BCA1C0F307224DA00DF0C9FC28684A
:10AEE000BCA1C0F307424AA00DF0C2FC55F8C0094E
:10AEF000BAA1020E46A00DF0BBFCBAA12068FDF776
:10AF00000CFA68B907F0CCFC07F094FC6422B7A1F6
:10AF10004DA00DF0ADFCB74AB7A155A00DF0A8FCAF
:10AF2000B8A12068FDF7F9F900282DD135F8A40F54
:10AF3000B6A1C0F3072236A00DF09AFC6868FDF7B1
:10AF4000BDFE41EC100BB3A153EC102BB3A00DF0E0
:10AF50008FFC2A78B4A1B7A00DF08AFCA868FDF791
:10AF6000ADFE41EC100BB6A153EC102BABA00DF0D5
:10AF70007FFCE868FDF7A2FE41EC100BB2A153EC98
:10AF8000102BA6A00DF074FC00207CBD000000007A
:10AF9000240400203D4C00004170722032312032E8
:10AFA000303231000D0A484925642025642E25647D
:10AFB0002E2564206275696C642025730D0A0000DB
:10AFC00032303130202D203230323120436F7079D1
:10AFD0007269676874206279204869504E55430D44
:10AFE0000A000000392041495853000036204149E9
:10AFF000585300004D4F44453A000000252D31368E
:10B000007325730D0A0000004F454D3A0000000003
:10B01000252D31367325640D0A00000049443A009D
:10B02000252D313673307825580D0A005555494481
:10B030003A000000252D313673255825580D0A0099
:10B040004F44523A00000000252D313673256448E4
:10B050007A0D0A003D53454E534F520067797220D6
:10B060006672710073656E736F7220737473000083
:10B07000252D3136733078253038580D0A00000000
:10B08000B00300204143435F52473A00252D31363B
:10B09000732564470D0A00004759525F52473A0032
:10B0A000252D31367325646470730D0A000000008D
:10B0B0003D4350550000000074696D6500000000BC
:10B0C000252D313673256420730D0A003D43414C14
:10B0D00000000000480500204143430D0A00000025
:10B0E0006E6F68656164657200000000B406002040
:10B0F0005243204143430D0A000000004759520DBE
:10B100000A0000005243204759520D0A0000000077
:10B110004D41470D0A00000067797220636F660099
:10B12000252D313673252E34660D0A003D555352B8
:10B1300000000000475749443A000000424155448E
:10B140003A00000043414E5F424155443A0000003E
:10B1500043414E5F49443A00252D31367325580D41
:10B160000A00000043414E5F4556545F544D523A29
:10B1700000000000252D31367325642C25642C2514
:10B18000642C25640D0A000047425F5448523A007F
:10B19000252D31367325302E34660D0A000000004F
:10B1A0004C4D465F5448523A00000000494D555FEF
:10B1B000434F4F52443A0000555246520D0A000088
:10B1C0003D5246004D41585F4E4F44455F53495AEA
:10B1D000453A00004652513A00000000524F4C459B
:10B1E0003A0000003D535953000000004F535F5494
:10B1F00049434B00008000085645435F4144445298
:10B200003A0000003D4853490000000076616C6937
:10B21000643A00006669746572723A00252D313611
:10B220007325660D0A00000062696E5F73746174B5
:10B2300075733A00252D313673256425250D0A00D6
:10B24000666C75783A000000696E636C696E6174B3
:10B25000696F6E3A0000000010B5086800221146C0
:10B26000401CFDF759FB0B4C012801D028B109E027
:10B2700009A00DF0FDFA032003E00AA00DF0F8FA92
:10B280000120206603484FF4E27120300DF0A0FC4D
:10B29000002010BD240400203920414958530D0AD4
:10B2A000000000003620414958530D0A00000000FC
:10B2B00010B500F001F810BD06488168090607D5F1
:10B2C000816841F4000181600349002000F0D2BB95
:10B2D0007047000000100240000E270700F01F0218
:10B2E000012191404009800000F1E020C0F80011E8
:10B2F0007047000010B5086800221146401CFDF799
:10B300000BFBB0F57A7F10D8094A916CB0EB114F66
:10B3100009D089B241EA004090644FF4E27102F131
:10B3200020000DF055FC002010BD012010BD0000D4
:10B330002404002070B5044600202B4B9FED2B0AFF
:10B340000BE06288616800FB020201EB82010A687F
:10B350009A4201DA81ED000A401C21888142F0DC2A
:10B3600000253DE06188606805FB015100EB81002C
:10B3700090ED000A10EE100AB0F1804F2FDDB0EE14
:10B38000001AC1EE000A10EE900AFDF797FC41EC9E
:10B39000100B02F08DFC51EC100BFDF7BBFC00EE26
:10B3A000100A002018E06288616805FB020201EBC8
:10B3B0008201D1ED000A60EE800AC1ED000A6288C8
:10B3C000616800FB025201EB8201401CD1ED000AD2
:10B3D00060EE800AC1ED000A21888142E3DC6D1C29
:10B3E0002088A842BEDC70BD6F12833A6F12833A88
:10B3F00010B5044A04460146107800F07FFD20464F
:10B4000010BD000048010020704700007CB50868AE
:10B41000134D01AB6A4613A1FCF79CFFA5F1200177
:10B4200001280A6C22F001020A6402D0022807D027
:10B4300013E0009855F820100CA000F00DFF0CE070
:10B44000002407E00098204455F8201007A000F0E1
:10B4500003FF641C01988442F4DB02207CBD0000E1
:10B46000440400203D25642C2564000030782530FC
:10B4700038580D0A0000000010B504A00DF0F8F9CE
:10B4800072B609F093FB002010BD00004F4B0D0A6F
:10B490000000000038B500200346009020222CA1B7
:10B4A0002EA000F0D9FE202003460246009033A1D2
:10B4B0002AA000F0D1FE402003460090202231A1B6
:10B4C00026A000F0C9FE60200346009020222EA195
:10B4D00022A000F0C1FE80200346009020222BA174
:10B4E0001EA000F0B9FEA02003460090202229A152
:10B4F0001AA000F0B1FEC02003460090402226A111
:10B5000016A000F0A9FE4FF48073402224A113A0DE
:10B51000009300F0A1FE4FF4A073402223A10FA0DE
:10B52000009300F099FE4FF4C073402222A10BA0BB
:10B53000009300F091FE234D0024214655F824206D
:10B5400021A000F089FE641C602CF6DB002038BDD1
:10B550004445565F494E464F00000000252D3136C8
:10B56000732073697A653A2564206F66733A25649F
:10B570002830782558290D0A00000000434F4D4D12
:10B580000000000053595300494D55004D43414CB4
:10B5900000000000524600005552465200000000D4
:10B5A0004143435F504152414D0000004759525FB3
:10B5B000504152414D0000004D41475F50415241C2
:10B5C0004D00000044040020414444525B25645D6A
:10B5D0003A3078253038580D0A00000070B504461E
:10B5E0000068A268012190472069A8B10BF044FDD2
:10B5F00005460CE00BF040FD411BE069814202D999
:10B600006FF0010070BD401C40080BF085FB216904
:10B61000206888470028EDD0204606F024F8002056
:10B6200070BD00002DE9F047086886B03D21FCF7A9
:10B6300063FE05002FA0DFF8CCA00FC88DE80F0037
:10B64000E9464FF0010813D068780D2810D00A2879
:10B650000ED068B100273E462BA00DF009F904AAD0
:10B660002EA1681CFCF776FEC0B2012814D024E09D
:10B6700026A00DF0FDF800244E464546574605FA33
:10B6800004F1B86C084203D0315D25A00DF0F0F84C
:10B69000641C102CF3DB28E000249DF8100019F83E
:10B6A0000410814205D108FA04F006431CA00DF0F5
:10B6B000DFF8641C102CF0D37F1C2C21681CFCF7D5
:10B6C0001BFE050001D0102FC9DBDAF8480082B25A
:10B6D000B2420AD06FF30F003043CAF8480009485D
:10B6E0004FF4E27120300DF073FA06B00020BDE88F
:10B6F000F08700009190A0B0C0D0D1F0626300004C
:10B7000000D960B1240400206E6577207061636BFE
:10B710006574206974656D733A0D0A002558000040
:10B720005B3078253032585D0D0A00002DE9F0437A
:10B730001C4E0546894656F8250085B098468188F6
:10B7400041F003018180002401278DF800208DF84D
:10B750000170ADF80440ADF8024004948DF80C700F
:10B7600056F825008DF806400C3002906946484690
:10B77000FEF77EF88DF800808DF80140ADF80440AA
:10B78000ADF8024004948DF80C7056F825008DF841
:10B7900006400C30029069464846FEF769F805B04D
:10B7A000BDE8F083788F010870B504461C48012C71
:10B7B00002D0022C19D10CE0C26842F48052C2605F
:10B7C000C26822F48052C260826942F4805282616F
:10B7D0000BE0026942F480420261026922F4804275
:10B7E0000261C26942F48042C2610E4D002055F8E8
:10B7F0002420108055F8242007201082204600F0D5
:10B8000013F855F82400018841F45171018055F86E
:10B810002400818821F004018180002070BD000097
:10B8200000100240788F01082DE9F04786B00D46E0
:10B830000646142225496846FCF74CFDDFF88C903B
:10B840004FF00008A9F10C092F4659F8260001888D
:10B8500021F0400101804446EA460120FFF7BAF892
:10B860003AF81410B0FBF1F0854206D3291AB94218
:10B8700003D2471B00D50F46A046641C0A2CECD30C
:10B8800059F826100A8822F038020A8059F8261042
:10B890000B8808F0070243EAC2020A8059F8261012
:10B8A0008A8822F480728A8059F826108B8808F0E2
:10B8B000080243EA42128A8059F82600018841F0C2
:10B8C0004001018006B0BDE8F0870000848F0108C8
:10B8D00030B50F4D55F820301C8824F040041C80F2
:10B8E00055F82040238811B143F0010101E023F015
:10B8F000010112B141F0020101E021F002012180B9
:10B9000055F82000018841F04001018030BD000061
:10B91000788F01082DE9F05F1F4D04468B4655F8DE
:10B920002400DDE90B760188DDF828809A469146EF
:10B9300021F040010180002241465846FDF704FFF6
:10B94000002239465846FDF7FFFE4A464146584612
:10B95000FDF76CFF524639465846FDF767FF324601
:10B9600041465846FDF754FF324639465846FDF7E2
:10B970004FFF012241465846FDF7E6FE01223946B7
:10B980005846FDF7E1FE55F82400018841F04001DA
:10B990000180BDE8F09F0000788F0108014A5160E6
:10B9A000106070473001002010B51049032808D1FD
:10B9B000086B40F000700863486D40F40070486503
:10B9C00000204A6822F0030202434A604A6802F0FB
:10B9D00003028242FAD1064C30B1012803D1032080
:10B9E000FEF7F8FF206010BD0420F9E700100240C8
:10B9F0000401002030B51D4CA56945F00105A56185
:10BA000006280CD2DFE800F003071E220B26A569EA
:10BA100045F0040502E0A56945F00805A561144D4F
:10BA20000F2443EA820255F82000082916D3436800
:10BA30008D00203DAC4089002039A3438A401A4341
:10BA4000426030BDA56945F01005E7E7A56945F0FE
:10BA50002005E3E7A56945F08005DFE70368890075
:10BA60008C40A3438A401A43026030BD001002405C
:10BA7000588F010870B506460D460020FFF794FF69
:10BA8000204C606843F6F07188436060606840F461
:10BA900010506060206820F08070206060681A4953
:10BAA0000840606060684FF4003141EA0641084395
:10BAB000606026B3FDF7C6FF00281FD10320FEF704
:10BAC00089FF4008B5FBF0F06168104A52F8200089
:10BAD000014361600E48854203D3606840F0004036
:10BAE0006060206840F08070206020688001FCD594
:10BAF0000220FFF759FF07480560002070BD0420B1
:10BB0000DDE7000000100240FFFFC01F208E01088B
:10BB100000A24A040401002010B509F0D9FD0BF081
:10BB2000B1FABDE8104009F0E7BD000000B54FF0E4
:10BB3000E020042101616FF07F4141610220FEF7A6
:10BB400049FF064A0449B0FBF2F04FF47A720860EC
:10BB50005043486000BD00001C01002040420F001F
:10BB60000248016841F470010160704788ED00E00F
:10BB7000024951F82000406A70470000A08F010878
:10BB800070B5044633481546062C29D2DFE804F088
:10BB90002803101C4A56C16841F40061C160C168A5
:10BBA00021F40061C160816941F40061816117E0A5
:10BBB000016941F001010161016921F001010161A7
:10BBC000C16941F001010AE0016941F0020101612E
:10BBD000016921F002010161C16941F00201C16105
:10BBE0001D4E4FF4806056F8241008800120FEF7A7
:10BBF000F1FE41001A48194A0260B1FBF2F056F812
:10BC00002410401E088556F82400C56256F82410FA
:10BC10000020486256F8241008822046BDE8704093
:10BC200000F05CB8016941F004010161016921F093
:10BC300004010161C16941F00401D0E7016941F0EB
:10BC400008010161016921F008010161C16941F048
:10BC50000801C4E700100240A08F010840420F0015
:10BC6000440100200D4A10B51256012302F01F04B2
:10BC7000A3405209920002F1E022C2F80031074AC3
:10BC80000832002952F82000818902D041F00101D8
:10BC900001E021F00101818110BD0000988F0108B1
:10BCA000024A52F82000C16270470000A08F0108CC
:10BCB000074A084B1268B3FBF2F2B1FBF2F20AB981
:10BCC00001B10122044951F82000C262704700000E
:10BCD0004401002040420F00A08F0108034951F8A1
:10BCE0002000018841F0010101807047A08F010808
:10BCF000034951F82000018821F0010101807047BB
:10BD0000A08F01084FF08040018A21F001010182DB
:10BD1000014808F07BBC0000240D00200348018886
:10BD200021F00101018000F009B80000100400407A
:10BD300010B504F099F8072010BD00002DE9F0417E
:10BD40004FF6FF7405F0EAFA204D06462049686870
:10BD50008319002215E00878C0070FD008699842BF
:10BD60001DD84869C0B1B6FBF0F700FB1767C01BD0
:10BD7000032708610F70A04200D20446521C12B281
:10BD80001831B5F900008242E5DD20466C600BF009
:10BD900086FC00260E4C13E002200870EEE7C01A65
:10BDA0000861E8E72078810707D520F002002070BD
:10BDB000A26812B1E16860689047761C36B2183408
:10BDC000B5F900008642EDDDBDE8F0810C040020ED
:10BDD0001015002004200CF021BC05200CF01EBC26
:10BDE0000C4B10B553F82020948924F4005494810E
:10BDF000002953F820108A8A02D042F0400201E064
:10BE000022F040028A8253F82000818941F40051D7
:10BE1000818110BDBC8F01080C4B10B553F8202058
:10BE2000948924F400549481002953F820108A8ABC
:10BE300002D042F0800201E022F080028A8253F8B0
:10BE40002000818941F40051818110BDBC8F01081F
:10BE5000054A52F820000288920603D580880870AF
:10BE60000020704701207047BC8F010870B50400A6
:10BE70001ED01C48012C02D0022C19D10CE0C26843
:10BE800042F48042C260C26822F48042C260826989
:10BE900042F4804282610BE0026942F400320261A6
:10BEA000026922F400320261C26942F40032C261C6
:10BEB000204600F02FF80C4842F20C0150F82420E4
:10BEC000918150F8240001880180084D287838B10C
:10BED0000748084904700848FFF760FD00202870F3
:10BEE000002070BD00100240BC8F01083801002006
:10BEF00048010020A1AA0008F1B30008044A52F842
:10BF00002030998052F8200001884906FCD57047FE
:10BF1000BC8F01082DE9F04104460D460120FEF7D3
:10BF200059FD1E4E56F824209189090400EBC001EA
:10BF300001EB001001D5690000E0A900B0FBF1F1B0
:10BF40006425B1FBF5F0030118096FF01807784379
:10BF500001EB800091890F044FF0320106D501EB0F
:10BF6000C000B0FBF5F000F0070005E001EB0010A9
:10BF7000B0FBF5F000F00F009189184393894DF65E
:10BF8000F3752B40938156F82420108156F8240035
:10BF900082890A438281BDE8F0810000BC8F0108DC
:10BFA00030B5214B01241B5603F01F05AC405B0943
:10BFB0009B0003F1E023C3F800411B4B1B1D53F80A
:10BFC0002040A58925F40055A58179B1012902D029
:10BFD000022921D115E053F82010002A8A8902D0C5
:10BFE00042F0200217E022F0200214E053F8201063
:10BFF000002A8A8902D042F040020CE022F040027E
:10C0000009E053F82010002A8A8902D042F0100279
:10C0100001E022F010028A8153F82000818941F466
:10C0200000518181002030BDB88F0108F0B50C4669
:10C03000086887B038A10AF02AFD394D4FF4E2773D
:10C0400005F12006E435C8B105F12800011FCDE94E
:10C0500005100A1F131FCDE903321038011F0A1FF4
:10C060000092CDE90110131F083A2EA12068FCF7B9
:10C0700071F9092806D0012007B0F0BD284604F068
:10C08000A5FF3FE0264C0022114694ED3B0A2846CE
:10C0900006F09FFD94ED3C0A01220021284606F09F
:10C0A00098FD94ED3D0A02220021284606F091FDFC
:10C0B00094ED3E0A00220121284606F08AFD012265
:10C0C00094ED3F0A1146284606F083FD94ED400AA0
:10C0D00002220121284606F07CFD94ED410A00224F
:10C0E0000221284606F075FD94ED420A0122022144
:10C0F000284606F06EFD022294ED430A11462846BA
:10C1000006F067FD29460EA003F024FF39463046AD
:10C110000CF05EFD0020AFE73D5245534554000052
:10C12000240400203D25662C25662C25662C2566DA
:10C130002C25662C25662C25662C25662C2566006C
:10C140006D61746C6162000001200CF067BA02201E
:10C150000CF064BA03200CF061BA00000A480168D0
:10C16000C90701D0012101600168C90502D54FF45A
:10C17000807101600168C90302D54FF4803101600C
:10C18000024880680AF0C4B8086400401404002023
:10C190000A4945F255520A6004224A6040F271226F
:10C1A00050434FF47A72B0FBF2F088604AF6AA204E
:10C1B00008604CF6CC40086070470000003000403A
:10C1C00002494AF6AA20086070470000003000408B
:10C1D0001CB508681A4C6B4601AA1AA1FCF7BAF8FC
:10C1E00002280AD101980099112808D017A000F060
:10C1F00033F8DDE9000144F8210002201CBD0529C7
:10C200000CD0062911D00E482038082913D009294E
:10C21000F3D1016C21F001010164EEE70A200AF07C
:10C2200039FE72B608F0C2FCE7E74FF4E27120462F
:10C230000CF0CEFCE1E7016C41F00101ECE70000FD
:10C24000440400203D25642C2564000076616C3A8E
:10C25000307825580D0A00000FB4054B10B503A91E
:10C26000044A029802F05AF910BC5DF814FB000071
:10C270004D1201083C0100207CB5044600201D46FB
:10C28000164600290BD0491ECDE90041044B6A46F1
:10C290002946304602F042F9009A002111707CBD17
:10C2A00019EF000803B401984100009850EAC1203A
:10C2B00018BF04204A0D18BF40F0010040F2FF7281
:10C2C000B2EB515F08BF40F00200012808BF052013
:10C2D00002B070474100080218BF04200A0E18BFC0
:10C2E00040F001004FF07F4232EA010108BF40F008
:10C2F0000200012808BF0520704700000048704771
:10C30000200400200000000070B5C1482DED020B94
:10C310002DED0E8B82B0119D25F000449FEDBEDB0C
:10C320009FEDBFEB84423EDBA4F140511098A1F198
:10C330007F6108430FD0BC48844202DC28D11098AA
:10C3400030B39DED100B02B0BDEC0E8B02B0BDE81A
:10C35000704001F09DBD9DED100B53EC1D2B51EC79
:10C36000100BFCF7B9FB9DED100B41EC180B53ECD7
:10C370001E2B51EC100BFCF7AFFB53EC182BFCF70A
:10C3800004FB41EC100B02B0BDEC0E8B02B070BD93
:10C39000012001F0B3FE02B0BDEC0E8B02B0BDE88F
:10C3A000704001F089BDA1489FEDA18B844256DA0F
:10C3B0009DED100BB4F1795F0ADA51EC100BFFF729
:10C3C00071FF042808BF01F097FD9DED100BDAE71F
:10C3D00053EC102B51EC100BFCF77EFB41EC190BCE
:10C3E00095480621B0EE490AF0EE690A784401F05A
:10C3F000B9FC53EC192B51EC100BFCF76DFB41EC25
:10C400001A0B8E48B0EE490AF0EE690A042178440E
:10C4100001F0A8FC53EC192B51EC100BFCF75CFB62
:10C4200053EC182BFCF7B1FA41EC100B51EC1A0B42
:10C4300053EC102BFCF7C2FBCDE900019DED000B86
:10C4400053EC102B9DED100B51EC100BFCF744FB43
:10C450009DED101B53EC112BFCF797FAD2E09DEDEC
:10C46000100B51EC100B04F0C5FD53EC182BFCF72E
:10C4700030FB9FED730BCDE9000153EC102B9DEDCC
:10C48000000B51EC100BFCF727FB41EC190B6E482D
:10C490000621B0EE490AF0EE690A784401F062FC28
:10C4A00053EC192B51EC100BFCF716FB41EC1B0B5A
:10C4B0006648B0EE490AF0EE690A0421784401F0BA
:10C4C00051FC53EC192B51EC100BFCF705FB53EC12
:10C4D000182BFCF75AFA41EC1C0B51EC190B0BF022
:10C4E000A2FA41EC180B5A489FED5BABA04222DC4C
:10C4F00053EC1C2B51EC1B0BFCF760FBCDE900014E
:10C500009DED000B51EC180B53EC102BFCF7E4FAEB
:10C5100053EC182BFCF739FA53EC1A2BFCF7DCFA26
:10C5200053EC1D2BFCF7D2FA53EC1E2BFCF7D1FA7F
:10C5300041EC100B5FE08DED008B002000909DED35
:10C54000000B51EC180B53EC102BFCF71EFA9DED71
:10C55000000B41EC1E0B53EC102B51EC100BFCF7B5
:10C56000BBFA53EC192BFCF7B4FA53EC1E2BFCF777
:10C5700025FB41EC190B53EC1C2B51EC1B0BFCF76E
:10C580001DFB41EC1B0B53EC1A2B51EC190BFCF768
:10C59000A3FA53EC1D2BFCF79CFA41EC190B53EC5E
:10C5A0001A2B51EC180BFCF797FA53EC1B2BFCF7EA
:10C5B00093FA53EC192BFCF789FA9DED000B41EC33
:10C5C000180B53EC1A2B51EC100BFCF785FA9FED6E
:10C5D000249B53EC192BFCF77CFA41EC100B51EC2B
:10C5E000180B53EC102BFCF771FA53EC192BFCF7DA
:10C5F00070FA41EC100B002D3FF7C5AE51EC100B5B
:10C6000081F0004141EC100BBDE60000000000008D
:10C610000000F03F00000000075C143326A6913CA8
:10C62000182D4454FB21F93F0000F07F0000E03F4B
:10C63000000000000000F03FA0CE0000AECE0000E1
:10C64000000000000000E03FF2CD000000CE00003E
:10C650003333EF3F00000000000000000000004006
:10C66000182D4454FB21E93F70B59B482DED020B7A
:10C670002DED068B079D25F00044A04218DC97485D
:10C68000844202DC0AD1069840B19DED060BBDEC58
:10C69000068B02B0BDE8704001F0FABB002DCCBFA4
:10C6A0009FED8F0B9FED900BBDEC068B02B070BD24
:10C6B0008F48A04215DD8F48A042D8BF4FF0FF340D
:10C6C00058DD9DED060B51EC100BFFF7EBFD042838
:10C6D00008BF01F011FC9DED060BBDEC068B02B00E
:10C6E00070BD9DED060B51EC100B04F083FCCDE901
:10C6F000060181489FED828BA0423CDD8248A0422A
:10C700001FDD00249FED82AB9DED060B53EC1A2B31
:10C7100051EC100BFCF739F99DED060B41EC190BB0
:10C7200053EC1A2B51EC100BFCF7D6F953EC182BE9
:10C73000FCF7CCF953EC192BFCF740FACDE90601D4
:10C7400049E09DED060B012453EC182B51EC100B26
:10C75000FCF71BF99DED060B41EC190B53EC182B64
:10C7600051EC100BFCF7B2F953EC192BFCF726FA3D
:10C77000CDE906012FE06848A0421FDD02249FEDAD
:10C78000689B9DED060B53EC192B51EC100BFCF73D
:10C79000A3F953EC182BFCF7F8F89DED060B41ECD0
:10C7A000180B53EC192B51EC100BFCF78FF953ECD1
:10C7B000182BFCF703FACDE906010CE09DED060B02
:10C7C000032453EC102B9FED580B51EC100BFCF78E
:10C7D000F5F9CDE906019DED060B53EC102B51EC5C
:10C7E000100BFCF779F941EC180B53EC182BFCF704
:10C7F00073F941EC190B4E480621B0EE490AF0EEF0
:10C80000690A784401F0AEFA53EC182B51EC100B86
:10C81000FCF762F941EC180B4648B0EE490AF0EE1D
:10C82000690A0521784401F09DFA53EC192B51EC6B
:10C83000100BFCF751F941EC100B51EC180B53ECB9
:10C84000102B002C0EDAFCF7A0F89DED061B53EC24
:10C85000112BFCF741F99DED061B53EC112BFCF756
:10C8600038F935E0FCF791F89DED061B53EC112BE0
:10C87000FCF732F941EC100B2F48784400EBC40070
:10C8800090ED001B51EC100B53EC112BFCF71EF933
:10C890009DED061B53EC112BFCF718F941EC100B26
:10C8A0002648784400EBC40090ED001B51EC100BBF
:10C8B00053EC112BFCF70DF941EC100B002DA2BF2E
:10C8C000BDEC068B02B070BD51EC100B81F0004145
:10C8D00041EC100B01E70000000010440000F07F65
:10C8E000182D4454FB21F93F182D4454FB21F9BF66
:10C8F0000000DC3F0000203E0000F33F000000008D
:10C90000000000000000F03F0000E63F00000000D3
:10C910000000000000000040008003400000000014
:10C92000000000000000F83F000000000000F0BF21
:10C9300042CB0000F8CA000082CA00003ACA0000D8
:10C9400070B56B4E2DED040B2DED028B82B0DDF832
:10C950001CC0DDE905235C422CF000411C4341EA88
:10C96000D474049D22F00040B44205D86C422C439C
:10C9700040EAD474B4420BD99DED061B9DED040B27
:10C9800002B0BDEC028B04B0BDE8704001F08ABA81
:10C99000ACF14054A4F17F641C430BD0022404EAA0
:10C9A000AC7444EAD27405439FED538B9FED542B36
:10C9B00007D015E09DED040B51EC100B02F08CFC40
:10C9C00042E0002C11BF012C9DED040B02B0BDEC28
:10C9D000028B04BF04B070BD022C38D0032C3BD0B6
:10C9E0000B439FED491B9FED4A0B0AD0B14218D172
:10C9F000B04209D121F0804120F08040079105909C
:10CA00000FE0002A15DA10E0434B7B44002C08BFEE
:10CA100093ED000B0DD0012C10D0022C17D0032C5D
:10CA20001AD0B0421DD1002A03DAB0EE410AF0EE6E
:10CA3000610A02B0BDEC028B04B070BD93ED000B37
:10CA400051EC100B81F0004141EC100BF1E7B0EE1E
:10CA5000480AF0EE680AECE7B0EE420AF0EE620A2D
:10CA6000E7E7401A00153C28C8BF8DED000B19DC24
:10CA7000BCF1000FBEBF10F13C0F9FED290B8DEDF7
:10CA8000000B0FDB9DED060B53EC102B9DED040B03
:10CA900051EC100BFCF792F804F0ACFA02F01CFC1D
:10CAA000CDE90001002C08BF9DED000BC1D0012C89
:10CAB00010D0022C9FED1C0B53EC102B9DED000BA6
:10CAC00051EC100B0DD0FCF701F853EC182BFBF7D1
:10CAD000FDFFB9E7019880F0004001909DED000B4B
:10CAE000A7E7FBF7F3FF53EC182BFBF7F2FFABE7DD
:10CAF0000000F07F00000000182D4454FB21094085
:10CB0000182D4454FB2109C0182D4454FB21F9BFB2
:10CB1000182D4454FB21F93FF2C900000000000029
:10CB20000000000000000000075C143326A6A13CB2
:10CB300010EE100A10B510EE901A4FF0684202EB9A
:10CB400040032DED028BB3F1654F3CBF02EB410278
:10CB5000B2F1654F7CD200BFC0F3C753C1F3C752D7
:10CB60009A1A1B2A09DD10F0004F14BF9FED6E0AC0
:10CB70009FED6E0ABDEC028B10BD12F11A0F1BDA8D
:10CB800011F0004F09D010F0004F0CBF9FED680A64
:10CB90009FED680ABDEC028B10BD80EE208A18EE76
:10CBA000100AFFF797FB042808BF01F0C3F9B0EEA5
:10CBB000480ABDEC028B10BD4200B2EB410F37D9E1
:10CBC00010F0004F19BFDFED5C1A9FED5C1ADFED2E
:10CBD0005C1A9FED5C1AB0EE602A0A46F1EE400A3C
:10CBE00080F00041B0EE420A10460A1A5200B2F13B
:10CBF000807F34D2484010F0004FDFED532A9FED84
:10CC0000533A1DBFBEEE002A71EEE21A31EE431A0E
:10CC1000B6EE002A04BF71EEA21A31EE031AF0EE4E
:10CC2000402A42EE602A40EE020A82EEA02A18E074
:10CC300011F0004F04BF9FED461AF0EE411AD4D018
:10CC400010F0004F1CBFDFED431A9FED431A00E0C8
:10CC500026E004BFDFED411A9FED411AC5E780EEE3
:10CC6000202A22EE020ADFED3F0ADFED3F2ABDEC6B
:10CC7000028B40EE202ADFED3D0A40EE220ADFED76
:10CC80003C2A40EE202ADFED3B0A40EE220A22EE4B
:10CC9000000A00EE201A31EE020A30EE210A10BD21
:10CCA0004FF07F42B2EB400F28BFB2EB410F05D2ED
:10CCB000BDEC028BBDE8104001F031B940EA010340
:10CCC0005B0008BF41F0FF410BD0B2EB400F08BF43
:10CCD000B2EB410F08D120F0804000EE100A21F0A5
:10CCE000804100EE901A37E7B2EB400F12BF5FEAC7
:10CCF000410240F0FF4001F000413FF42DAF4A00F7
:10CD000092EA40033FF528AF002AACBF9FED1A1A04
:10CD10009FED1A1A20EE010A60EE810A10EE100A49
:10CD200010EE901A18E70000DB0FC9BFDB0FC93FF8
:10CD3000DB0F4940DB0F49C00000C9BF22AAFDB983
:10CD40000000C93F22AAFD390060ED3EC30ACE377C
:10CD500000000000000049C022AA7DBA000049403E
:10CD600022AA7D3A2DAD65BD8FB8D53D0FB511BE58
:10CD700061C84C3EA8AAAABE0000804F0000802FC8
:10CD800010EE101A08B5444A6846B2EB410F28D994
:10CD90004FF0E640B0EB410F94BF00204FF0FF3062
:10CDA00000900098002861DB60EE000A10F0010F8F
:10CDB00045D010F0020FDFED391A9FED391A00EE61
:10CDC000E11ADFED381A40EE811A21EEA01AF0EEDA
:10CDD000400A40EE010A08BFF1EE600AB0EE600AB8
:10CDE00008BD314B21F0004293423CD911F0004F75
:10CDF000DFED2E0A20EE201ADFED2D0A19BF31EEED
:10CE0000601A71EE200A31EE201A71EE600ABDEE52
:10CE1000E01A11EE100A9FED271A00F0030000EE51
:10CE2000C10A9FED251A009000EEC10A9FED231A5A
:10CE300000EEC10A9FED221A00EEC10AB1E79FED94
:10CE4000211A9FED210A10F0020F00EE810A9FEDDA
:10CE50001F1A00EE801AB7EE000A00EE810A18BF12
:10CE6000B1EE400A08BD01F06DF89AE710EE100A25
:10CE70004000B0F17F4F3CBFB7EE000A08BD07D1BC
:10CE80004FF0010001F03AF9BDE8084001F04AB85E
:10CE9000BDE8084001F040B8B61F927E336D4C39B2
:10CEA000DA82083CA0AA2ABE490E494683F9223FED
:10CEB0000000004B0000C93F00A0FD390020A23354
:10CEC0001A61342CB93AB2BACA9F2A3DDDFFFFBEBF
:10CED0002DE9F04D2DED040B2DED0E8B96B0DDE917
:10CEE0002550279CDDF890A025F0004624F000484E
:10CEF000BAF1000F14BF0121002101EB4502FC49EA
:10CF000053184A1093422AD3002814BF0123002348
:10CF100003EB44030B44F7498B4220D358EA00014A
:10CF20009FEDF59B76D0DFF8D8B35D4503D1BAF11C
:10CF3000000F05D188E0BAF1000F08BF002100D032
:10CF4000012101EB450111F5001F08D8002814BF8D
:10CF50000121002101EB440111F5001F0BD99DEDCA
:10CF6000261B9DED240B16B0BDEC0E8B04B0BDE866
:10CF7000F04D00F097BF0027002DBCBFE149884568
:10CF800021DAE1498845A8BF02271CDAC3451ADC2B
:10CF9000DE4901EB2851142908DDC1F1340220FAE1
:10CFA00002F101FA02F282420DD108E058B9C1F152
:10CFB000140228FA02F101FA02F2424503D101F00B
:10CFC0000101C1F1020756EA0A0124D1002C22DA3C
:10CFD000002D18BF022F01D0012F0AD0022001F02E
:10CFE0008DF816B0BDEC0E8B04B0BDE8F04D00F02E
:10CFF00037BF022001F082F800F032FF51EC100B35
:10D0000081F0004141EC100B16B0BDEC0E8B04B06A
:10D01000BDE8F08D18E09FEDBEAB9FEDBF8B002803
:10D0200071D1B848804522D105F1804010F58010BB
:10D0300008BFBAF1000F07D0B3450ADC002CA8BF27
:10D040009DED260BE0DA0DE0B0EE490AF0EE690A3C
:10D05000DAE7002C06DA9DED260B51EC100B81F07F
:10D0600000416FE0AE48784490ED000BCCE7D84526
:10D070004DD1002C48DA2EB186423AD1BAF1000FD8
:10D0800042D126E0BAF1000F13D0022001F036F8A9
:10D0900000F022FF8DED020B9DED240B8DED000BBA
:10D0A00010EE900A039961F31E0003909DED020BB0
:10D0B000AAE78DED02AB9DED240B1AEE901A10EE4F
:10D0C000900A8DED000B61F31E0003909DED020BA5
:10D0D0009AE78DED028B9DED240B18EE901A10EE61
:10D0E000900A8DED000B61F31E0003909DED020B85
:10D0F0008AE709DA9DED240B51EC190B53EC102B48
:10D10000FBF75CFD1EE020E09DED240B7CE78642F2
:10D110001BDAB4F1804F0DD0A4F10050B0F1FF50F4
:10D1200013D1002D11DB9DED240B51EC100B0AF0F7
:10D130007AFC07E09DED240B53EC102B51EC100B07
:10D1400000F0C2BC41EC100B5EE79DED240B51ECEE
:10D15000100B03F04FFFBAF1000FCDE90E0142D1E1
:10D160009FED710B46B3A6F1E040B0F17F600CD0AB
:10D170005E4538D1002D00DAA7B3022F0CBF012085
:10D180004FF0FF30FBF789FDDCE7002D01DD002CBF
:10D190000DDA002D01DD002C1FDB002D16DA002C2E
:10D1A00014DB012F08BF9FED620B3FF42DAFB0EEF3
:10D1B0004A0AF0EE6A0A27E7022F18BF002D0CD0AA
:10D1C000012F0AD1002DFFF61FAF06E0002DB8BFDA
:10D1D000002C08DA012F3FF417AFB0EE480AF0EE4A
:10D1E000680A11E71BE0012000EBE57050EA070137
:10D1F00015D0791EB0EE498AF0EE698A084308BF5F
:10D200009FED4D8B4E480025804570DD4D494E48C1
:10D21000884514DDB0420DDB002C19DB2FE0012026
:10D2200000F06CFF16B0BDEC0E8B04B0BDE8F04D05
:10D2300000F042BEB34502DC002C09DC1FE0864250
:10D2400002DA002C1BDA03E05E452BDD002C16DD34
:10D25000022000F053FF00F03FFE8DED020B53EC77
:10D260001A2B51EC180BFBF737FCCDE900010399A1
:10D27000019861F31E0003909DED020BC4E60220AD
:10D2800000F03CFF00F038FE10EE901A18EE900A05
:10D290008DED020B8DED008B61F31E0003909DED73
:10D2A000020BB1E69DED0E0B53EC192B51EC100B5C
:10D2B000FBF70CFC9FED260BCDE9080153EC102B7E
:10D2C0009DED080B51EC100BFBF706FC9FED221BAC
:10D2D00053EC112BFBF7FDFB9DED081B53EC112BC1
:10D2E000FBF7FAFB9FED1E1B53EC112B3CE08CE08F
:10D2F000FFFF1F00FFFF0F00000000000000F03FD5
:10D300000000F03F0000F07F0000404301FCFFFF01
:10D31000000000000000F07F00000000000000009E
:10D3200096C3000000000000000000000000008024
:10D33000000000000000F0FF000000000000F0BF4F
:10D340000000E0410000F043FFFFEF3F000000005D
:10D35000000000000000D03F555555555555D53FAC
:10D36000000000000000E03FFBF7B3FB9DED080B61
:10D3700041EC1A0B53EC102B51EC100BFBF7ACFBF0
:10D3800053EC1A2BFBF7A8FB41EC1A0B9FEDFE0B9D
:10D3900053EC102B9DED080B51EC100BFBF79CFB95
:10D3A00041EC1B0B9FEDFA0B51EC1A0B53EC102BBD
:10D3B000FBF792FB41EC1A0B9FEDF70B53EC102B94
:10D3C0009DED080B51EC100BFBF786FB53EC1A2B71
:10D3D000FBF77CFB41EC1A0B51EC1B0B53EC1A2BAB
:10D3E000FBF7D3FA0690CDE906519DED060B53EC01
:10D3F0001B2B51EC100BFBF769FB53EC1A2BFBF7C3
:10D4000068FB41EC100B00F0A1B90020B6F5801FBD
:10D410000EDA9FEDE30B53EC102B9DED0E0B51EC50
:10D42000100BFBF759FBCDE90E016FF034000E46EF
:10D4300000EB2650A0F2FF37C6F31300DA4940F0A4
:10D440007F6646F040568842D8BF002408DDD749A1
:10D450008142C8BF012403DC0024A6F580167F1C8E
:10D46000D348784400EBC4000F9690ED00CB9DEDBF
:10D470000E0B53EC1C2B51EC100BFBF727FB9DED17
:10D480000E0B41EC1B0B53EC1C2B51EC100BFBF760
:10D490007CFA41EC100B51EC190B53EC102BFBF701
:10D4A0008DFB41EC1D0B51EC1B0B53EC1D2BFBF7C3
:10D4B00013FB41EC1A0BBF488DED10AB784410956F
:10D4C00090ED000B4FF0005040EA660000EB844006
:10D4D0008DED080B00F5002009909DED080B53EC35
:10D4E0001C2B51EC100BFBF7F1FA9DED0E1B53ECCE
:10D4F000112BFBF7EEFA41EC100B53EC102B9DEDCA
:10D50000100B51EC100BFBF7E7FA9DED080B41EC0B
:10D510001C0B53EC102B9DED100B51EC100BFBF77B
:10D52000DBFA53EC1B2BFBF7D4FA53EC1C2BFBF769
:10D53000CDFA53EC1D2BFBF7CFFA41EC1C0B53EC4F
:10D540001A2B51EC1A0BFBF7C7FA41EC1B0B9A484C
:10D550000621B0EE4B0AF0EE6B0A784400F002FCB4
:10D56000B0EE401AF0EE601AB0EE41DAF0EE61DA99
:10D5700053EC1B2B51EC1B0BFBF7AEFA53EC1D2BA2
:10D58000FBF7AAFA9DED100B41EC1B0B53EC1A2B89
:10D5900051EC100BFBF7F9F953EC1C2BFBF79CFA41
:10D5A00053EC1B2BFBF7F1F99DED100B41EC1B0B22
:10D5B00053EC102B51EC100BFBF78EFA41EC1D0BCA
:10D5C0009FED7FEB53EC1E2BFBF7DFF953EC1B2B8E
:10D5D000FBF7DBF90890CDE908519DED080B53EC02
:10D5E0001E2B51EC100BFBF771FA53EC1D2BFBF7C4
:10D5F0006DFA53EC1B2BFBF76CFA9DED080B41EC1D
:10D600001D0B53EC102B9DED100B51EC100BFBF789
:10D6100063FA41EC1B0B53EC1A2B51EC1D0BFBF77F
:10D620005BFA9DED080B41EC1A0B53EC102B51ECFF
:10D630001C0BFBF751FA53EC1A2BFBF7A6F941EC44
:10D640001A0B51EC1B0B53EC1A2BFBF79EF90C90A9
:10D65000CDE90C519DED0C0B53EC1B2B51EC100B39
:10D66000FBF734FA53EC1A2BFBF733FA41EC1B0BA4
:10D670009FED550B53EC102B9DED0C0B51EC100B4B
:10D68000FBF72AFA41EC1A0B9FED510B51EC1B0BE7
:10D6900053EC102BFBF720FA41EC1B0B9FED4E0BCC
:10D6A00053EC102B9DED0C0B51EC100BFBF714FA07
:10D6B00053EC1B2BFBF769F941EC100B48487844FD
:10D6C00000EBC40090ED001B51EC100B53EC112B40
:10D6D000FBF75BF941EC1B0B3846FBF7DEFACDE9B3
:10D6E000080153EC1B2B51EC1A0BFBF74EF941ECE4
:10D6F000100B3C48784400EBC40090ED00CB51EC9B
:10D70000100B53EC1C2BFBF740F99DED081B53EC61
:10D71000112BFBF73AF90690CDE906519DED080B68
:10D7200053EC102B9DED060B51EC100BFBF7CEF9D3
:10D7300053EC1C2BFBF7CAF953EC1A2BFBF7C6F979
:10D7400053EC1B2BFBF7C5F941EC100B9DED261B91
:10D7500053EC102B8DED001B00959DED260B51EC2D
:10D76000100BFBF7B9F99DED000B41EC1A0B53ECD4
:10D77000102B9DED260B51EC100BFBF7A7F99DED3F
:10D78000061B53EC112B2FE0000000604715F73FFC
:10D79000FE822B654715F73F44DF5DF80BAE543E24
:10D7A00000000000000040438E9803007AB60B0092
:10D7B00012BF000040BF00004ABE00000000000091
:10D7C0000000000000000840000000E009C7EE3F34
:10D7D000FD033ADC09C7EE3FF5015B14E02F3EBEC6
:10D7E000D6BC000090BC0000FBF776F953EC1A2B76
:10D7F000FBF7CBF89DED060B41EC1A0B53EC102B0D
:10D800009DED000B51EC100BFBF766F9CDE90C0117
:10D810009DED0C0B51EC1A0B53EC102BFBF7B5F8EC
:10D82000CDE902010C46AA498C422FDB611A08435C
:10D8300018D19DED0C0B53EC102B9DED020B51EC10
:10D84000100BFBF743F941EC1B0B9FEDA30B51ECC5
:10D850001A0B53EC102BFBF798F853EC1B2BFBF730
:10D86000ADFC2DD2022000F049FC00F035FB10EE9B
:10D87000901A18EE900A8DED020B8DED008B61F37E
:10D880001E0003909DED020BFFF7BEBB944A24F0EF
:10D890000041914214D39349214408437FF4EFACF3
:10D8A0009DED0C0B53EC102B9DED020B51EC100B6E
:10D8B000FBF70CF953EC1A2BFBF780FC7FF6DFAC7F
:10D8C00024F000408849894A002601EB2051824219
:10D8D0002BDA481C4FF4801121FA00F02044844ACE
:10D8E000C0F30A517A44A1F2FF3192ED000B814A54
:10D8F0008DED080BCA4020EA0202C0F3130040F489
:10D900008010C1F1140120FA01F60992002CB8BF71
:10D9100076429DED080B53EC102B9DED0C0B51EC5A
:10D92000100BFBF7D3F8CDE90C019DED0C0B51EC7E
:10D930001A0B53EC102BFBF728F89FED6F0B089098
:10D94000CDE9085153EC102B9DED080B51EC100B59
:10D95000FBF7C2F841EC1B0B9FED690B53EC102B4E
:10D960009DED080B51EC100BFBF7B6F89DED0C0B81
:10D9700041EC1C0B53EC102B9DED080B51EC100BE4
:10D98000FBF7A4F853EC1A2BFBF7A3F89FED5E1BF3
:10D9900053EC112BFBF7A0F853EC1C2BFAF7F5FF17
:10D9A00041EC1A0B51EC1B0B53EC1A2BFAF7EDFF61
:10D9B000CDE902019DED020B53EC1B2B51EC100B3A
:10D9C000FBF784F853EC1A2BFBF783F89DED020B61
:10D9D00041EC1A0B53EC102B51EC100BFBF77CF8BD
:10D9E000CDE908014A489DED080B0521784400F077
:10D9F000B9F99DED081B51EC100B53EC112BFBF703
:10DA00006BF89DED021B53EC112BFBF762F8CDE98F
:10DA100006019DED020B53EC1A2B51EC100BFBF79A
:10DA20005BF853EC1A2BFAF7B0FF9FED3B0B41EC80
:10DA30001A0B53EC102B9DED060B51EC100BFBF762
:10DA400045F89DED060B41EC1B0B53EC102B9DEDA7
:10DA5000020B51EC100BFBF73FF853EC1B2BFBF7C1
:10DA6000ADF853EC1A2BFBF731F89DED021B53EC8C
:10DA7000112BFBF72BF853EC192BFBF72AF8CDE908
:10DA8000020101EB065001150029C8BF039015DC07
:10DA90009DED020B324651EC100BFBF702FBFEF73B
:10DAA00001FC042808BF00F027FA32469DED020B66
:10DAB00051EC100BFBF7F5FACDE902019DED020BDD
:10DAC00051EC180B53EC102BFBF706F8FFF73ABBA1
:10DAD0000000904000000000FE822B654715973C37
